{
  "contractName": "ERC20",
  "abi": [
    {
      "constant": true,
      "inputs": [],
      "name": "totalSupply",
      "outputs": [
        {
          "name": "",
          "type": "uint256"
        }
      ],
      "payable": false,
      "stateMutability": "view",
      "type": "function"
    },
    {
      "constant": true,
      "inputs": [],
      "name": "decimals",
      "outputs": [
        {
          "name": "",
          "type": "uint256"
        }
      ],
      "payable": false,
      "stateMutability": "view",
      "type": "function"
    },
    {
      "constant": true,
      "inputs": [],
      "name": "symbolOfToken",
      "outputs": [
        {
          "name": "",
          "type": "string"
        }
      ],
      "payable": false,
      "stateMutability": "view",
      "type": "function"
    },
    {
      "constant": true,
      "inputs": [],
      "name": "nameOfToken",
      "outputs": [
        {
          "name": "",
          "type": "string"
        }
      ],
      "payable": false,
      "stateMutability": "view",
      "type": "function"
    },
    {
      "anonymous": false,
      "inputs": [
        {
          "indexed": true,
          "name": "_from",
          "type": "address"
        },
        {
          "indexed": true,
          "name": "_to",
          "type": "address"
        },
        {
          "indexed": false,
          "name": "_value",
          "type": "uint256"
        }
      ],
      "name": "Transfer",
      "type": "event"
    },
    {
      "anonymous": false,
      "inputs": [
        {
          "indexed": true,
          "name": "_owner",
          "type": "address"
        },
        {
          "indexed": true,
          "name": "_spender",
          "type": "address"
        },
        {
          "indexed": false,
          "name": "_value",
          "type": "uint256"
        }
      ],
      "name": "Approval",
      "type": "event"
    },
    {
      "constant": true,
      "inputs": [
        {
          "name": "_holder",
          "type": "address"
        }
      ],
      "name": "balanceOf",
      "outputs": [
        {
          "name": "",
          "type": "uint256"
        }
      ],
      "payable": false,
      "stateMutability": "view",
      "type": "function"
    },
    {
      "constant": false,
      "inputs": [
        {
          "name": "_to",
          "type": "address"
        },
        {
          "name": "_amount",
          "type": "uint256"
        }
      ],
      "name": "transfer",
      "outputs": [
        {
          "name": "",
          "type": "bool"
        }
      ],
      "payable": false,
      "stateMutability": "nonpayable",
      "type": "function"
    },
    {
      "constant": false,
      "inputs": [
        {
          "name": "_from",
          "type": "address"
        },
        {
          "name": "_to",
          "type": "address"
        },
        {
          "name": "_amount",
          "type": "uint256"
        }
      ],
      "name": "transferFrom",
      "outputs": [
        {
          "name": "",
          "type": "bool"
        }
      ],
      "payable": false,
      "stateMutability": "nonpayable",
      "type": "function"
    },
    {
      "constant": false,
      "inputs": [
        {
          "name": "_spender",
          "type": "address"
        },
        {
          "name": "_amount",
          "type": "uint256"
        }
      ],
      "name": "approve",
      "outputs": [
        {
          "name": "",
          "type": "bool"
        }
      ],
      "payable": false,
      "stateMutability": "nonpayable",
      "type": "function"
    },
    {
      "constant": true,
      "inputs": [
        {
          "name": "_owner",
          "type": "address"
        },
        {
          "name": "_spender",
          "type": "address"
        }
      ],
      "name": "allowance",
      "outputs": [
        {
          "name": "",
          "type": "uint256"
        }
      ],
      "payable": false,
      "stateMutability": "view",
      "type": "function"
    }
  ],
  "bytecode": "0x6080604052601260035534801561001557600080fd5b50610d6a806100256000396000f300608060405260043610610099576000357c0100000000000000000000000000000000000000000000000000000000900463ffffffff168063095ea7b31461009e57806318160ddd1461010357806323b872dd1461012e578063313ce567146101b357806370a08231146101de578063938e5e8e14610235578063a9059cbb146102c5578063cab87ef11461032a578063dd62ed3e146103ba575b600080fd5b3480156100aa57600080fd5b506100e9600480360381019080803573ffffffffffffffffffffffffffffffffffffffff16906020019092919080359060200190929190505050610431565b604051808215151515815260200191505060405180910390f35b34801561010f57600080fd5b506101186105b8565b6040518082815260200191505060405180910390f35b34801561013a57600080fd5b50610199600480360381019080803573ffffffffffffffffffffffffffffffffffffffff169060200190929190803573ffffffffffffffffffffffffffffffffffffffff169060200190929190803590602001909291905050506105be565b604051808215151515815260200191505060405180910390f35b3480156101bf57600080fd5b506101c86108dc565b6040518082815260200191505060405180910390f35b3480156101ea57600080fd5b5061021f600480360381019080803573ffffffffffffffffffffffffffffffffffffffff1690602001909291905050506108e2565b6040518082815260200191505060405180910390f35b34801561024157600080fd5b5061024a61092b565b6040518080602001828103825283818151815260200191508051906020019080838360005b8381101561028a57808201518184015260208101905061026f565b50505050905090810190601f1680156102b75780820380516001836020036101000a031916815260200191505b509250505060405180910390f35b3480156102d157600080fd5b50610310600480360381019080803573ffffffffffffffffffffffffffffffffffffffff169060200190929190803590602001909291905050506109c9565b604051808215151515815260200191505060405180910390f35b34801561033657600080fd5b5061033f610bd7565b6040518080602001828103825283818151815260200191508051906020019080838360005b8381101561037f578082015181840152602081019050610364565b50505050905090810190601f1680156103ac5780820380516001836020036101000a031916815260200191505b509250505060405180910390f35b3480156103c657600080fd5b5061041b600480360381019080803573ffffffffffffffffffffffffffffffffffffffff169060200190929190803573ffffffffffffffffffffffffffffffffffffffff169060200190929190505050610c75565b6040518082815260200191505060405180910390f35b6000808214806104bd57506000600560003373ffffffffffffffffffffffffffffffffffffffff1673ffffffffffffffffffffffffffffffffffffffff16815260200190815260200160002060008573ffffffffffffffffffffffffffffffffffffffff1673ffffffffffffffffffffffffffffffffffffffff16815260200190815260200160002054145b15156104c857600080fd5b81600560003373ffffffffffffffffffffffffffffffffffffffff1673ffffffffffffffffffffffffffffffffffffffff16815260200190815260200160002060008573ffffffffffffffffffffffffffffffffffffffff1673ffffffffffffffffffffffffffffffffffffffff168152602001908152602001600020819055508273ffffffffffffffffffffffffffffffffffffffff163373ffffffffffffffffffffffffffffffffffffffff167f8c5be1e5ebec7d5bd14f71427d1e84f3dd0314c0f7b2291e5b200ac8c7c3b925846040518082815260200191505060405180910390a36001905092915050565b60005481565b60008073ffffffffffffffffffffffffffffffffffffffff168373ffffffffffffffffffffffffffffffffffffffff161415801561062857503073ffffffffffffffffffffffffffffffffffffffff168373ffffffffffffffffffffffffffffffffffffffff1614155b151561063357600080fd5b61068582600460008773ffffffffffffffffffffffffffffffffffffffff1673ffffffffffffffffffffffffffffffffffffffff16815260200190815260200160002054610cfc90919063ffffffff16565b600460008673ffffffffffffffffffffffffffffffffffffffff1673ffffffffffffffffffffffffffffffffffffffff1681526020019081526020016000208190555061075782600560008773ffffffffffffffffffffffffffffffffffffffff1673ffffffffffffffffffffffffffffffffffffffff16815260200190815260200160002060003373ffffffffffffffffffffffffffffffffffffffff1673ffffffffffffffffffffffffffffffffffffffff16815260200190815260200160002054610cfc90919063ffffffff16565b600560008673ffffffffffffffffffffffffffffffffffffffff1673ffffffffffffffffffffffffffffffffffffffff16815260200190815260200160002060003373ffffffffffffffffffffffffffffffffffffffff1673ffffffffffffffffffffffffffffffffffffffff1681526020019081526020016000208190555061082982600460008673ffffffffffffffffffffffffffffffffffffffff1673ffffffffffffffffffffffffffffffffffffffff16815260200190815260200160002054610d1d90919063ffffffff16565b600460008573ffffffffffffffffffffffffffffffffffffffff1673ffffffffffffffffffffffffffffffffffffffff168152602001908152602001600020819055508273ffffffffffffffffffffffffffffffffffffffff168473ffffffffffffffffffffffffffffffffffffffff167fddf252ad1be2c89b69c2b068fc378daa952ba7f163c4a11628f55a4df523b3ef846040518082815260200191505060405180910390a3600190509392505050565b60035481565b6000600460008373ffffffffffffffffffffffffffffffffffffffff1673ffffffffffffffffffffffffffffffffffffffff168152602001908152602001600020549050919050565b60028054600181600116156101000203166002900480601f0160208091040260200160405190810160405280929190818152602001828054600181600116156101000203166002900480156109c15780601f10610996576101008083540402835291602001916109c1565b820191906000526020600020905b8154815290600101906020018083116109a457829003601f168201915b505050505081565b60008073ffffffffffffffffffffffffffffffffffffffff168373ffffffffffffffffffffffffffffffffffffffff1614158015610a3357503073ffffffffffffffffffffffffffffffffffffffff168373ffffffffffffffffffffffffffffffffffffffff1614155b1515610a3e57600080fd5b610a9082600460003373ffffffffffffffffffffffffffffffffffffffff1673ffffffffffffffffffffffffffffffffffffffff16815260200190815260200160002054610cfc90919063ffffffff16565b600460003373ffffffffffffffffffffffffffffffffffffffff1673ffffffffffffffffffffffffffffffffffffffff16815260200190815260200160002081905550610b2582600460008673ffffffffffffffffffffffffffffffffffffffff1673ffffffffffffffffffffffffffffffffffffffff16815260200190815260200160002054610d1d90919063ffffffff16565b600460008573ffffffffffffffffffffffffffffffffffffffff1673ffffffffffffffffffffffffffffffffffffffff168152602001908152602001600020819055508273ffffffffffffffffffffffffffffffffffffffff163373ffffffffffffffffffffffffffffffffffffffff167fddf252ad1be2c89b69c2b068fc378daa952ba7f163c4a11628f55a4df523b3ef846040518082815260200191505060405180910390a36001905092915050565b60018054600181600116156101000203166002900480601f016020809104026020016040519081016040528092919081815260200182805460018160011615610100020316600290048015610c6d5780601f10610c4257610100808354040283529160200191610c6d565b820191906000526020600020905b815481529060010190602001808311610c5057829003601f168201915b505050505081565b6000600560008473ffffffffffffffffffffffffffffffffffffffff1673ffffffffffffffffffffffffffffffffffffffff16815260200190815260200160002060008373ffffffffffffffffffffffffffffffffffffffff1673ffffffffffffffffffffffffffffffffffffffff16815260200190815260200160002054905092915050565b600080838311151515610d0e57600080fd5b82840390508091505092915050565b6000808284019050838110151515610d3457600080fd5b80915050929150505600a165627a7a72305820e0d9a1dcdc0da2c20d7ad1e45929638bdd6ff9eaddb05127573dd2be6c29be3c0029",
  "source": "// Developed by Phenom.Team <info@phenom.team>\npragma solidity ^0.4.24;\n\n\n/**\n * @title SafeMath\n * @dev Math operations with safety checks that revert on error\n */\nlibrary SafeMath {\n\n  /**\n  * @dev Multiplies two numbers, reverts on overflow.\n  */\n  function mul(uint256 _a, uint256 _b) internal pure returns (uint256) {\n    // Gas optimization: this is cheaper than requiring 'a' not being zero, but the\n    // benefit is lost if 'b' is also tested.\n    // See: https://github.com/OpenZeppelin/openzeppelin-solidity/pull/522\n    if (_a == 0) {\n      return 0;\n    }\n\n    uint256 c = _a * _b;\n    require(c / _a == _b);\n\n    return c;\n  }\n\n  /**\n  * @dev Integer division of two numbers truncating the quotient, reverts on division by zero.\n  */\n  function div(uint256 _a, uint256 _b) internal pure returns (uint256) {\n    require(_b > 0); // Solidity only automatically asserts when dividing by 0\n    uint256 c = _a / _b;\n    // assert(_a == _b * c + _a % _b); // There is no case in which this doesn't hold\n\n    return c;\n  }\n\n  /**\n  * @dev Subtracts two numbers, reverts on overflow (i.e. if subtrahend is greater than minuend).\n  */\n  function sub(uint256 _a, uint256 _b) internal pure returns (uint256) {\n    require(_b <= _a);\n    uint256 c = _a - _b;\n\n    return c;\n  }\n\n  /**\n  * @dev Adds two numbers, reverts on overflow.\n  */\n  function add(uint256 _a, uint256 _b) internal pure returns (uint256) {\n    uint256 c = _a + _b;\n    require(c >= _a);\n\n    return c;\n  }\n\n  /**\n  * @dev Divides two numbers and returns the remainder (unsigned integer modulo),\n  * reverts when dividing by zero.\n  */\n  function mod(uint256 a, uint256 b) internal pure returns (uint256) {\n    require(b != 0);\n    \n    return a % b;\n  }\n}\n\n\n/**\n * @title Ownable\n * @dev The Ownable contract has an owner address, and provides basic authorization control\n * functions, this simplifies the implementation of \"user permissions\".\n */\ncontract Ownable {\n  address public owner;\n\n  /**\n   * @dev The Ownable constructor sets the original `owner` of the contract to the sender\n   * account.\n   */\n  constructor() public {\n    owner = msg.sender;\n  }\n\n  /**\n   * @dev Throws if called by any account other than the owner.\n   */\n  modifier onlyOwner() {\n    require(msg.sender == owner);\n    _;\n  }\n}\n\n/**\n * @title ERC20\n * @dev Standard of ERC20.\n */\ncontract ERC20 {\n  using SafeMath for uint256;\n\n\tuint public totalSupply;\n  string public nameOfToken;\n  string public symbolOfToken;\n  uint public decimals = 18;\n\n\tmapping(address => uint) balances;\n\tmapping(address => mapping (address => uint)) allowed;\n\n\t/**\n  *   @dev Get balance of tokens holder\n  *   @param _holder        holder's address\n  *   @return               balance of investor\n  */\n  function balanceOf(address _holder) public view returns (uint) {\n       return balances[_holder];\n  }\n\n /**\n  *   @dev Send coins\n  *   throws on any error rather then return a false flag to minimize\n  *   user errors\n  *   @param _to           target address\n  *   @param _amount       transfer amount\n  *\n  *   @return true if the transfer was successful \n  */\n  function transfer(address _to, uint _amount) public returns (bool) {\n      require(_to != address(0) && _to != address(this));\n      balances[msg.sender] = balances[msg.sender].sub(_amount);     \n      balances[_to] = balances[_to].add(_amount);\n      emit Transfer(msg.sender, _to, _amount);\n      return true;\n  }\n\n /**\n  *   @dev An account/contract attempts to get the coins\n  *   throws on any error rather then return a false flag to minimize user errors\n  *\n  *   @param _from         source address\n  *   @param _to           target address\n  *   @param _amount       transfer amount\n  *\n  *   @return true if the transfer was successful\n  */\n  function transferFrom(address _from, address _to, uint _amount) public returns (bool) {\n      require(_to != address(0) && _to != address(this));\n      balances[_from] = balances[_from].sub(_amount);\n      allowed[_from][msg.sender] = allowed[_from][msg.sender].sub(_amount);\n      balances[_to] = balances[_to].add(_amount);\n      emit Transfer(_from, _to, _amount);\n      return true;\n   }\n\n /**\n  *   @dev Allows another account/contract to spend some tokens on its behalf\n  *   throws on any error rather then return a false flag to minimize user errors\n  *\n  *   also, to minimize the risk of the approve/transferFrom attack vector\n  *   approve has to be called twice in 2 separate transactions - once to\n  *   change the allowance to 0 and secondly to change it to the new allowance\n  *   value\n  *\n  *   @param _spender      approved address\n  *   @param _amount       allowance amount\n  *\n  *   @return true if the approval was successful\n  */\n  function approve(address _spender, uint _amount) public returns (bool) {\n      require((_amount == 0) || (allowed[msg.sender][_spender] == 0));\n      allowed[msg.sender][_spender] = _amount;\n      emit Approval(msg.sender, _spender, _amount);\n      return true;\n  }\n\n /**\n  *   @dev Function to check the amount of tokens that an owner allowed to a spender.\n  *\n  *   @param _owner        the address which owns the funds\n  *   @param _spender      the address which will spend the funds\n  *\n  *   @return              the amount of tokens still avaible for the spender\n  */\n  function allowance(address _owner, address _spender) public view returns (uint) {\n      return allowed[_owner][_spender];\n  }\n\n\tevent Transfer(address indexed _from, address indexed _to, uint _value);\n\tevent Approval(address indexed _owner, address indexed _spender, uint _value);\n}\n\n/**\n * @title StandardToken\n * @dev Token without the ability to release new ones.\n */\ncontract StandardToken is Ownable, ERC20 {\n  using SafeMath for uint256;\n\n  /**\n  * @dev The Standard token constructor determines the total supply of tokens.\n  */\n  constructor(uint _totalSupply, string _nameOfToken, string _symbolOfToken) public {\n    totalSupply = _totalSupply; //1000000\n    balances[msg.sender] = _totalSupply;\n    nameOfToken = _nameOfToken;\n    symbolOfToken = _symbolOfToken;\n    emit Transfer(address(0), msg.sender, _totalSupply);\n  }\n\n  /**\n  * @dev Sends the tokens to a list of addresses.\n  */\n  function airdrop(address[] _addresses, uint256[] _values) public onlyOwner returns (bool) {\n        require(_addresses.length == _values.length);\n        for (uint256 i = 0; i < _addresses.length; i++) {\n            require(transfer(_addresses[i], _values[i]));\n        }\n        return true;\n  }\n\n}\n\n/**\n * @title MintableToken\n * @dev Token with the ability to release new ones.\n */\ncontract MintableToken is Ownable, ERC20 {\n  using SafeMath for uint256;\n\n  bool public mintingFinished = false;\n\n /**\n  * @dev The Standard token constructor determines the total supply of tokens.\n  */\n  constructor(string _nameOfToken, string _symbolOfToken) public {\n    nameOfToken = _nameOfToken;\n    symbolOfToken = _symbolOfToken;\n  }\n\n  modifier canMint() {\n    require(!mintingFinished);\n    _;\n  }\n\n /**\n  *   @dev Function to mint tokens\n  *   @param _holder       beneficiary address the tokens will be issued to\n  *   @param _value        number of tokens to issue\n  */\n  function mintTokens(address _holder, uint _value) public canMint onlyOwner returns (bool) {\n     require(_value > 0);\n     require(_holder != address(0));\n     balances[_holder] = balances[_holder].add(_value);\n     totalSupply = totalSupply.add(_value);\n     emit Mint(_holder, _value);\n     return true;\n  }\n\n  /**\n  * @dev Sends the tokens to a list of addresses.\n  */\n  function mintableAirdrop(address[] _addresses, uint256[] _values) public onlyOwner returns (bool) {\n        require(_addresses.length == _values.length);\n        for (uint256 i = 0; i < _addresses.length; i++) {\n            require(mintTokens(_addresses[i], _values[i]));\n        }\n        return true;\n  }\n \n /**\n  *   @dev Function finishes minting tokens.\n  *\n  *   @return              the status of issue\n  */\n  function finishMinting() public onlyOwner canMint returns (bool) {\n    mintingFinished = true;\n    emit MintFinished(now);\n    return true;\n  }\n\n  event Mint(address indexed _to, uint256 _amount);\n  event MintFinished(uint indexed _timestamp);\n}\n\n/**\n * @title TokenCreator\n * @dev Create new token ERC20.\n */\ncontract TokenCreator {\n  using SafeMath for uint256;\n\n  mapping(address => address[]) public tokens;\n  \n  function createStandardToken(uint _totalSupply, string _nameOfToken, string _symbolOfToken) public returns (address) {\n    address token = new StandardToken(_totalSupply, _nameOfToken, _symbolOfToken);\n    tokens[msg.sender].push(token);\n    emit TokenCreated(msg.sender, token);\n    return token;\n  }\n\n  function createMintableToken(string _nameOfToken, string _symbolOfToken) public returns (address) {\n    address token = new MintableToken(_nameOfToken, _symbolOfToken);\n    tokens[msg.sender].push(token);\n    emit TokenCreated(msg.sender, token);\n    return token;\n  }\n\n  event TokenCreated(address indexed _creator, address indexed _token);\n}",
  "sourcePath": "/home/andrew/airdrop-dapp/contracts/airdrop.sol",
  "compiler": {
    "name": "solc",
    "version": "0.4.24+commit.e67f0147.Emscripten.clang"
  },
  "schemaVersion": "2.0.1",
  "updatedAt": "2018-08-27T15:56:06.676Z"
}